:100000000C943A000C9444000C9444000C9444006A
:100010000C9444000C9444000C9444000C94440050
:100020000C9444000C9444000C9444000C94440040
:100030000C9444000C9444000C9444000C94440030
:100040000C9444000C9444000C9444000C94440020
:100050000C9444006A006D00700073007600790013
:100060007C007F008200850088008B008E0091005C
:100070009400970011241FBECFE5D8E0DEBFCDBFAE
:100080000E9446000C94A0000C9400000E945C00AA
:10009000C0E0D0E08C2F90E00E9461002FE986E85C
:1000A00091E0215080409040E1F700C00000CF5F18
:1000B000C03180F3CD2FEECF8FE78ABB80E48BBBBE
:1000C000089590E080319105A0F5FC01E65DFF4FB9
:1000D0000C949A0080EC8BBB089589EF8BBB08953C
:1000E00084EA8BBB089580EB8BBB089589E98BBBB9
:1000F000089582E98BBB089582E88BBB089588EF51
:100100008BBB089580E88BBB089580E98BBB089575
:1001100088E08BBB089583E08BBB089580E78BBBA1
:10012000089581E28BBB089580E38BBB089588E33B
:100130008BBB0895EE0FFF1F0590F491E02D0994FD
:04014000F894FFCF61
:00000001FF
